{
  "contractName": "Media",
  "abi": [
    {
      "inputs": [
        {
          "internalType": "address",
          "name": "marketContractAddr",
          "type": "address"
        }
      ],
      "stateMutability": "nonpayable",
      "type": "constructor"
    },
    {
      "anonymous": false,
      "inputs": [
        {
          "indexed": true,
          "internalType": "address",
          "name": "owner",
          "type": "address"
        },
        {
          "indexed": true,
          "internalType": "address",
          "name": "approved",
          "type": "address"
        },
        {
          "indexed": true,
          "internalType": "uint256",
          "name": "tokenId",
          "type": "uint256"
        }
      ],
      "name": "Approval",
      "type": "event"
    },
    {
      "anonymous": false,
      "inputs": [
        {
          "indexed": true,
          "internalType": "address",
          "name": "owner",
          "type": "address"
        },
        {
          "indexed": true,
          "internalType": "address",
          "name": "operator",
          "type": "address"
        },
        {
          "indexed": false,
          "internalType": "bool",
          "name": "approved",
          "type": "bool"
        }
      ],
      "name": "ApprovalForAll",
      "type": "event"
    },
    {
      "anonymous": false,
      "inputs": [
        {
          "indexed": false,
          "internalType": "uint256",
          "name": "_currentPrice",
          "type": "uint256"
        }
      ],
      "name": "CurrentPriceChanged",
      "type": "event"
    },
    {
      "anonymous": false,
      "inputs": [
        {
          "indexed": false,
          "internalType": "address",
          "name": "_developer",
          "type": "address"
        }
      ],
      "name": "DeveloperChanged",
      "type": "event"
    },
    {
      "anonymous": false,
      "inputs": [
        {
          "indexed": true,
          "internalType": "address",
          "name": "_from",
          "type": "address"
        },
        {
          "indexed": false,
          "internalType": "uint256",
          "name": "_token",
          "type": "uint256"
        },
        {
          "indexed": false,
          "internalType": "string",
          "name": "_msg",
          "type": "string"
        }
      ],
      "name": "SetMessage",
      "type": "event"
    },
    {
      "anonymous": false,
      "inputs": [
        {
          "indexed": true,
          "internalType": "uint256",
          "name": "_tokenId",
          "type": "uint256"
        },
        {
          "indexed": false,
          "internalType": "address",
          "name": "owner",
          "type": "address"
        },
        {
          "indexed": false,
          "internalType": "string",
          "name": "_uri",
          "type": "string"
        }
      ],
      "name": "TokenMetadataURIUpdated",
      "type": "event"
    },
    {
      "anonymous": false,
      "inputs": [
        {
          "indexed": true,
          "internalType": "uint256",
          "name": "_tokenId",
          "type": "uint256"
        },
        {
          "indexed": false,
          "internalType": "address",
          "name": "owner",
          "type": "address"
        },
        {
          "indexed": false,
          "internalType": "string",
          "name": "_uri",
          "type": "string"
        }
      ],
      "name": "TokenURIUpdated",
      "type": "event"
    },
    {
      "anonymous": false,
      "inputs": [
        {
          "indexed": true,
          "internalType": "address",
          "name": "from",
          "type": "address"
        },
        {
          "indexed": true,
          "internalType": "address",
          "name": "to",
          "type": "address"
        },
        {
          "indexed": true,
          "internalType": "uint256",
          "name": "tokenId",
          "type": "uint256"
        }
      ],
      "name": "Transfer",
      "type": "event"
    },
    {
      "inputs": [],
      "name": "COLLECTION_LIBRARY_HASH",
      "outputs": [
        {
          "internalType": "uint256",
          "name": "",
          "type": "uint256"
        }
      ],
      "stateMutability": "view",
      "type": "function"
    },
    {
      "inputs": [],
      "name": "INITIAL_DEVELOPER_ADDRESS",
      "outputs": [
        {
          "internalType": "address",
          "name": "",
          "type": "address"
        }
      ],
      "stateMutability": "view",
      "type": "function"
    },
    {
      "inputs": [],
      "name": "INITIAL_PRICE",
      "outputs": [
        {
          "internalType": "uint256",
          "name": "",
          "type": "uint256"
        }
      ],
      "stateMutability": "view",
      "type": "function"
    },
    {
      "inputs": [],
      "name": "RESERVED_FOR_FUTURE_SALES",
      "outputs": [
        {
          "internalType": "uint16",
          "name": "",
          "type": "uint16"
        }
      ],
      "stateMutability": "view",
      "type": "function"
    },
    {
      "inputs": [],
      "name": "TOTAL_SUPPLY",
      "outputs": [
        {
          "internalType": "uint256",
          "name": "",
          "type": "uint256"
        }
      ],
      "stateMutability": "view",
      "type": "function"
    },
    {
      "inputs": [
        {
          "internalType": "uint256",
          "name": "",
          "type": "uint256"
        }
      ],
      "name": "_canSetMessage",
      "outputs": [
        {
          "internalType": "bool",
          "name": "",
          "type": "bool"
        }
      ],
      "stateMutability": "view",
      "type": "function"
    },
    {
      "inputs": [
        {
          "internalType": "address",
          "name": "to",
          "type": "address"
        },
        {
          "internalType": "uint256",
          "name": "tokenId",
          "type": "uint256"
        }
      ],
      "name": "approve",
      "outputs": [],
      "stateMutability": "nonpayable",
      "type": "function"
    },
    {
      "inputs": [
        {
          "internalType": "address",
          "name": "owner",
          "type": "address"
        }
      ],
      "name": "balanceOf",
      "outputs": [
        {
          "internalType": "uint256",
          "name": "",
          "type": "uint256"
        }
      ],
      "stateMutability": "view",
      "type": "function"
    },
    {
      "inputs": [],
      "name": "baseURI",
      "outputs": [
        {
          "internalType": "string",
          "name": "",
          "type": "string"
        }
      ],
      "stateMutability": "view",
      "type": "function"
    },
    {
      "inputs": [],
      "name": "crytolovelockPrice",
      "outputs": [
        {
          "internalType": "uint256",
          "name": "",
          "type": "uint256"
        }
      ],
      "stateMutability": "view",
      "type": "function"
    },
    {
      "inputs": [],
      "name": "developer",
      "outputs": [
        {
          "internalType": "address",
          "name": "",
          "type": "address"
        }
      ],
      "stateMutability": "view",
      "type": "function"
    },
    {
      "inputs": [
        {
          "internalType": "uint256",
          "name": "tokenId",
          "type": "uint256"
        }
      ],
      "name": "getApproved",
      "outputs": [
        {
          "internalType": "address",
          "name": "",
          "type": "address"
        }
      ],
      "stateMutability": "view",
      "type": "function"
    },
    {
      "inputs": [
        {
          "internalType": "address",
          "name": "owner",
          "type": "address"
        },
        {
          "internalType": "address",
          "name": "operator",
          "type": "address"
        }
      ],
      "name": "isApprovedForAll",
      "outputs": [
        {
          "internalType": "bool",
          "name": "",
          "type": "bool"
        }
      ],
      "stateMutability": "view",
      "type": "function"
    },
    {
      "inputs": [],
      "name": "marketContract",
      "outputs": [
        {
          "internalType": "address",
          "name": "",
          "type": "address"
        }
      ],
      "stateMutability": "view",
      "type": "function"
    },
    {
      "inputs": [],
      "name": "name",
      "outputs": [
        {
          "internalType": "string",
          "name": "",
          "type": "string"
        }
      ],
      "stateMutability": "view",
      "type": "function"
    },
    {
      "inputs": [
        {
          "internalType": "uint256",
          "name": "tokenId",
          "type": "uint256"
        }
      ],
      "name": "ownerOf",
      "outputs": [
        {
          "internalType": "address",
          "name": "",
          "type": "address"
        }
      ],
      "stateMutability": "view",
      "type": "function"
    },
    {
      "inputs": [
        {
          "internalType": "uint256",
          "name": "",
          "type": "uint256"
        }
      ],
      "name": "previousTokenOwners",
      "outputs": [
        {
          "internalType": "address",
          "name": "",
          "type": "address"
        }
      ],
      "stateMutability": "view",
      "type": "function"
    },
    {
      "inputs": [
        {
          "internalType": "address",
          "name": "from",
          "type": "address"
        },
        {
          "internalType": "address",
          "name": "to",
          "type": "address"
        },
        {
          "internalType": "uint256",
          "name": "tokenId",
          "type": "uint256"
        }
      ],
      "name": "safeTransferFrom",
      "outputs": [],
      "stateMutability": "nonpayable",
      "type": "function"
    },
    {
      "inputs": [
        {
          "internalType": "address",
          "name": "from",
          "type": "address"
        },
        {
          "internalType": "address",
          "name": "to",
          "type": "address"
        },
        {
          "internalType": "uint256",
          "name": "tokenId",
          "type": "uint256"
        },
        {
          "internalType": "bytes",
          "name": "_data",
          "type": "bytes"
        }
      ],
      "name": "safeTransferFrom",
      "outputs": [],
      "stateMutability": "nonpayable",
      "type": "function"
    },
    {
      "inputs": [
        {
          "internalType": "address",
          "name": "operator",
          "type": "address"
        },
        {
          "internalType": "bool",
          "name": "approved",
          "type": "bool"
        }
      ],
      "name": "setApprovalForAll",
      "outputs": [],
      "stateMutability": "nonpayable",
      "type": "function"
    },
    {
      "inputs": [
        {
          "internalType": "bytes4",
          "name": "interfaceId",
          "type": "bytes4"
        }
      ],
      "name": "supportsInterface",
      "outputs": [
        {
          "internalType": "bool",
          "name": "",
          "type": "bool"
        }
      ],
      "stateMutability": "view",
      "type": "function"
    },
    {
      "inputs": [],
      "name": "symbol",
      "outputs": [
        {
          "internalType": "string",
          "name": "",
          "type": "string"
        }
      ],
      "stateMutability": "view",
      "type": "function"
    },
    {
      "inputs": [
        {
          "internalType": "uint256",
          "name": "index",
          "type": "uint256"
        }
      ],
      "name": "tokenByIndex",
      "outputs": [
        {
          "internalType": "uint256",
          "name": "",
          "type": "uint256"
        }
      ],
      "stateMutability": "view",
      "type": "function"
    },
    {
      "inputs": [
        {
          "internalType": "uint256",
          "name": "",
          "type": "uint256"
        }
      ],
      "name": "tokenContentHashes",
      "outputs": [
        {
          "internalType": "bytes32",
          "name": "",
          "type": "bytes32"
        }
      ],
      "stateMutability": "view",
      "type": "function"
    },
    {
      "inputs": [
        {
          "internalType": "uint256",
          "name": "",
          "type": "uint256"
        }
      ],
      "name": "tokenCreators",
      "outputs": [
        {
          "internalType": "address",
          "name": "",
          "type": "address"
        }
      ],
      "stateMutability": "view",
      "type": "function"
    },
    {
      "inputs": [
        {
          "internalType": "uint256",
          "name": "",
          "type": "uint256"
        }
      ],
      "name": "tokenMetadataHashes",
      "outputs": [
        {
          "internalType": "bytes32",
          "name": "",
          "type": "bytes32"
        }
      ],
      "stateMutability": "view",
      "type": "function"
    },
    {
      "inputs": [
        {
          "internalType": "address",
          "name": "owner",
          "type": "address"
        },
        {
          "internalType": "uint256",
          "name": "index",
          "type": "uint256"
        }
      ],
      "name": "tokenOfOwnerByIndex",
      "outputs": [
        {
          "internalType": "uint256",
          "name": "",
          "type": "uint256"
        }
      ],
      "stateMutability": "view",
      "type": "function"
    },
    {
      "inputs": [],
      "name": "totalSupply",
      "outputs": [
        {
          "internalType": "uint256",
          "name": "",
          "type": "uint256"
        }
      ],
      "stateMutability": "view",
      "type": "function"
    },
    {
      "inputs": [
        {
          "internalType": "address",
          "name": "from",
          "type": "address"
        },
        {
          "internalType": "address",
          "name": "to",
          "type": "address"
        },
        {
          "internalType": "uint256",
          "name": "tokenId",
          "type": "uint256"
        }
      ],
      "name": "transferFrom",
      "outputs": [],
      "stateMutability": "nonpayable",
      "type": "function"
    },
    {
      "inputs": [],
      "name": "initialBidShares",
      "outputs": [
        {
          "components": [
            {
              "components": [
                {
                  "internalType": "uint256",
                  "name": "value",
                  "type": "uint256"
                }
              ],
              "internalType": "struct Decimal.D256",
              "name": "prevOwner",
              "type": "tuple"
            },
            {
              "components": [
                {
                  "internalType": "uint256",
                  "name": "value",
                  "type": "uint256"
                }
              ],
              "internalType": "struct Decimal.D256",
              "name": "creator",
              "type": "tuple"
            },
            {
              "components": [
                {
                  "internalType": "uint256",
                  "name": "value",
                  "type": "uint256"
                }
              ],
              "internalType": "struct Decimal.D256",
              "name": "owner",
              "type": "tuple"
            }
          ],
          "internalType": "struct IMarket.BidShares",
          "name": "",
          "type": "tuple"
        }
      ],
      "stateMutability": "pure",
      "type": "function"
    },
    {
      "inputs": [],
      "name": "currentPrice",
      "outputs": [
        {
          "internalType": "uint256",
          "name": "",
          "type": "uint256"
        }
      ],
      "stateMutability": "view",
      "type": "function"
    },
    {
      "inputs": [
        {
          "internalType": "uint256",
          "name": "_crytolovelockPrice",
          "type": "uint256"
        }
      ],
      "name": "setCurrentPrice",
      "outputs": [],
      "stateMutability": "nonpayable",
      "type": "function"
    },
    {
      "inputs": [],
      "name": "currentDeveloper",
      "outputs": [
        {
          "internalType": "address",
          "name": "",
          "type": "address"
        }
      ],
      "stateMutability": "view",
      "type": "function"
    },
    {
      "inputs": [
        {
          "internalType": "address",
          "name": "_developer",
          "type": "address"
        }
      ],
      "name": "setDeveloper",
      "outputs": [],
      "stateMutability": "nonpayable",
      "type": "function"
    },
    {
      "inputs": [
        {
          "internalType": "uint256",
          "name": "tokenId",
          "type": "uint256"
        }
      ],
      "name": "tokenURI",
      "outputs": [
        {
          "internalType": "string",
          "name": "",
          "type": "string"
        }
      ],
      "stateMutability": "view",
      "type": "function"
    },
    {
      "inputs": [
        {
          "internalType": "uint256",
          "name": "tokenId",
          "type": "uint256"
        }
      ],
      "name": "tokenMetadataURI",
      "outputs": [
        {
          "internalType": "string",
          "name": "",
          "type": "string"
        }
      ],
      "stateMutability": "view",
      "type": "function"
    },
    {
      "inputs": [
        {
          "internalType": "uint256",
          "name": "_tokenId",
          "type": "uint256"
        },
        {
          "internalType": "string",
          "name": "_msg",
          "type": "string"
        }
      ],
      "name": "setLoveMessage",
      "outputs": [],
      "stateMutability": "nonpayable",
      "type": "function"
    },
    {
      "inputs": [
        {
          "internalType": "uint256",
          "name": "tokenId",
          "type": "uint256"
        },
        {
          "components": [
            {
              "internalType": "string",
              "name": "tokenURI",
              "type": "string"
            },
            {
              "internalType": "string",
              "name": "metadataURI",
              "type": "string"
            },
            {
              "internalType": "bytes32",
              "name": "contentHash",
              "type": "bytes32"
            },
            {
              "internalType": "bytes32",
              "name": "metadataHash",
              "type": "bytes32"
            }
          ],
          "internalType": "struct IMedia.MediaData",
          "name": "data",
          "type": "tuple"
        }
      ],
      "name": "mint",
      "outputs": [],
      "stateMutability": "payable",
      "type": "function"
    },
    {
      "inputs": [
        {
          "internalType": "uint256",
          "name": "tokenId",
          "type": "uint256"
        },
        {
          "internalType": "address",
          "name": "recipient",
          "type": "address"
        }
      ],
      "name": "auctionTransfer",
      "outputs": [],
      "stateMutability": "nonpayable",
      "type": "function"
    },
    {
      "inputs": [
        {
          "internalType": "uint256",
          "name": "tokenId",
          "type": "uint256"
        },
        {
          "components": [
            {
              "internalType": "uint256",
              "name": "amount",
              "type": "uint256"
            },
            {
              "internalType": "address",
              "name": "currency",
              "type": "address"
            }
          ],
          "internalType": "struct IMarket.Ask",
          "name": "ask",
          "type": "tuple"
        }
      ],
      "name": "setAsk",
      "outputs": [],
      "stateMutability": "nonpayable",
      "type": "function"
    },
    {
      "inputs": [
        {
          "internalType": "uint256",
          "name": "tokenId",
          "type": "uint256"
        }
      ],
      "name": "removeAsk",
      "outputs": [],
      "stateMutability": "nonpayable",
      "type": "function"
    },
    {
      "inputs": [
        {
          "internalType": "uint256",
          "name": "tokenId",
          "type": "uint256"
        },
        {
          "components": [
            {
              "internalType": "uint256",
              "name": "amount",
              "type": "uint256"
            },
            {
              "internalType": "address",
              "name": "currency",
              "type": "address"
            },
            {
              "internalType": "address",
              "name": "bidder",
              "type": "address"
            },
            {
              "internalType": "address",
              "name": "recipient",
              "type": "address"
            },
            {
              "components": [
                {
                  "internalType": "uint256",
                  "name": "value",
                  "type": "uint256"
                }
              ],
              "internalType": "struct Decimal.D256",
              "name": "sellOnShare",
              "type": "tuple"
            }
          ],
          "internalType": "struct IMarket.Bid",
          "name": "bid",
          "type": "tuple"
        }
      ],
      "name": "setBid",
      "outputs": [],
      "stateMutability": "nonpayable",
      "type": "function"
    },
    {
      "inputs": [
        {
          "internalType": "uint256",
          "name": "tokenId",
          "type": "uint256"
        }
      ],
      "name": "removeBid",
      "outputs": [],
      "stateMutability": "nonpayable",
      "type": "function"
    },
    {
      "inputs": [
        {
          "internalType": "uint256",
          "name": "tokenId",
          "type": "uint256"
        },
        {
          "components": [
            {
              "internalType": "uint256",
              "name": "amount",
              "type": "uint256"
            },
            {
              "internalType": "address",
              "name": "currency",
              "type": "address"
            },
            {
              "internalType": "address",
              "name": "bidder",
              "type": "address"
            },
            {
              "internalType": "address",
              "name": "recipient",
              "type": "address"
            },
            {
              "components": [
                {
                  "internalType": "uint256",
                  "name": "value",
                  "type": "uint256"
                }
              ],
              "internalType": "struct Decimal.D256",
              "name": "sellOnShare",
              "type": "tuple"
            }
          ],
          "internalType": "struct IMarket.Bid",
          "name": "bid",
          "type": "tuple"
        }
      ],
      "name": "acceptBid",
      "outputs": [],
      "stateMutability": "nonpayable",
      "type": "function"
    },
    {
      "inputs": [
        {
          "internalType": "uint256",
          "name": "tokenId",
          "type": "uint256"
        }
      ],
      "name": "burn",
      "outputs": [],
      "stateMutability": "nonpayable",
      "type": "function"
    },
    {
      "inputs": [
        {
          "internalType": "uint256",
          "name": "tokenId",
          "type": "uint256"
        }
      ],
      "name": "revokeApproval",
      "outputs": [],
      "stateMutability": "nonpayable",
      "type": "function"
    },
    {
      "inputs": [
        {
          "internalType": "uint256",
          "name": "tokenId",
          "type": "uint256"
        },
        {
          "internalType": "string",
          "name": "_tokenURI",
          "type": "string"
        }
      ],
      "name": "updateTokenURI",
      "outputs": [],
      "stateMutability": "nonpayable",
      "type": "function"
    },
    {
      "inputs": [
        {
          "internalType": "uint256",
          "name": "tokenId",
          "type": "uint256"
        },
        {
          "internalType": "string",
          "name": "metadataURI",
          "type": "string"
        }
      ],
      "name": "updateTokenMetadataURI",
      "outputs": [],
      "stateMutability": "nonpayable",
      "type": "function"
    }
  ],
  "bytecode": "0x60806040523480156200001157600080fd5b5060405162006cf538038062006cf5833981810160405281019062000037919062000388565b6040518060400160405280600f81526020017f43727970746f6c6f76656c6f636b7300000000000000000000000000000000008152506040518060400160405280600481526020017f4c4f434b00000000000000000000000000000000000000000000000000000000815250620000bb6301ffc9a760e01b620001ea60201b60201c565b8160069080519060200190620000d3929190620002c2565b508060079080519060200190620000ec929190620002c2565b50620001056380ac58cd60e01b620001ea60201b60201c565b6200011d63780e9d6360e01b620001ea60201b60201c565b50506001600a8190555080600e60006101000a81548173ffffffffffffffffffffffffffffffffffffffff021916908373ffffffffffffffffffffffffffffffffffffffff160217905550668e1bc9bf040000600b8190555073de89fb5bd8f420301fab3930faaef185776c4b07600c60006101000a81548173ffffffffffffffffffffffffffffffffffffffff021916908373ffffffffffffffffffffffffffffffffffffffff160217905550620001e3634e222e6660e01b620001ea60201b60201c565b5062000477565b63ffffffff60e01b817bffffffffffffffffffffffffffffffffffffffffffffffffffffffff1916141562000256576040517f08c379a00000000000000000000000000000000000000000000000000000000081526004016200024d90620003f6565b60405180910390fd5b6001600080837bffffffffffffffffffffffffffffffffffffffffffffffffffffffff19167bffffffffffffffffffffffffffffffffffffffffffffffffffffffff1916815260200190815260200160002060006101000a81548160ff02191690831515021790555050565b828054600181600116156101000203166002900490600052602060002090601f016020900481019282601f106200030557805160ff191683800117855562000336565b8280016001018555821562000336579182015b828111156200033557825182559160200191906001019062000318565b5b50905062000345919062000349565b5090565b6200036e91905b808211156200036a57600081600090555060010162000350565b5090565b90565b60008151905062000382816200045d565b92915050565b6000602082840312156200039b57600080fd5b6000620003ab8482850162000371565b91505092915050565b6000620003c3601c8362000418565b91507f4552433136353a20696e76616c696420696e74657266616365206964000000006000830152602082019050919050565b600060208201905081810360008301526200041181620003b4565b9050919050565b600082825260208201905092915050565b600062000436826200043d565b9050919050565b600073ffffffffffffffffffffffffffffffffffffffff82169050919050565b620004688162000429565b81146200047457600080fd5b50565b61686e80620004876000396000f3fe6080604052600436106102935760003560e01c806375682e791161015a578063ba339399116100c1578063e4ffee6e1161007a578063e4ffee6e14610a4f578063e821c55d14610a7a578063e985e9c514610aa5578063f6b630f014610ae2578063fad3219714610b0b578063ff70fa4914610b4857610293565b8063ba33939914610919578063c47494db14610942578063c87b56dd1461097f578063c9b78dfb146109bc578063ca4b208b146109e7578063e0fd045f14610a1257610293565b80639d8e7260116101135780639d8e72601461080d578063a1794bcd1461084a578063a22cb46514610875578063b1e130fc1461089e578063b320f459146108c7578063b88d4fde146108f057610293565b806375682e791461070f5780637b5b9879146107385780637c5e279514610761578063902d55a51461078c57806395d89b41146107b75780639d1b464a146107e257610293565b806328220f35116101fe5780635bf62422116101b75780635bf62422146105fc57806362f24b70146106255780636352211e1461064e5780636c0360eb1461068b57806370a08231146106b65780637550a4d2146106f357610293565b806328220f35146104dc5780632f745c591461050557806342842e0e1461054257806342966c681461056b578063487c57c7146105945780634f6ccce7146105bf57610293565b80630caa1917116102505780630caa1917146103ce578063157c3df9146103f957806318160ddd1461043657806318b200711461046157806318e97fd11461048a57806323b872dd146104b357610293565b806301ddc3b51461029857806301ffc9a7146102d557806306fdde0314610312578063081812fc1461033d578063095ea7b31461037a578063099fa48a146103a3575b600080fd5b3480156102a457600080fd5b506102bf60048036038101906102ba9190614c00565b610b71565b6040516102cc9190615f02565b60405180910390f35b3480156102e157600080fd5b506102fc60048036038101906102f79190614bae565b610b89565b6040516103099190615ee7565b60405180910390f35b34801561031e57600080fd5b50610327610bf0565b6040516103349190615f1d565b60405180910390f35b34801561034957600080fd5b50610364600480360381019061035f9190614c00565b610c92565b6040516103719190615e4e565b60405180910390f35b34801561038657600080fd5b506103a1600480360381019061039c9190614b72565b610d17565b005b3480156103af57600080fd5b506103b8610e2f565b6040516103c59190615e4e565b60405180910390f35b3480156103da57600080fd5b506103e3610e47565b6040516103f0919061643a565b60405180910390f35b34801561040557600080fd5b50610420600480360381019061041b9190614c00565b610e4d565b60405161042d9190615f1d565b60405180910390f35b34801561044257600080fd5b5061044b610fa7565b6040516104589190616455565b60405180910390f35b34801561046d57600080fd5b5061048860048036038101906104839190614c00565b610fb8565b005b34801561049657600080fd5b506104b160048036038101906104ac9190614c65565b611089565b005b3480156104bf57600080fd5b506104da60048036038101906104d59190614a6c565b6112a1565b005b3480156104e857600080fd5b5061050360048036038101906104fe9190614c00565b611301565b005b34801561051157600080fd5b5061052c60048036038101906105279190614b72565b611434565b6040516105399190616455565b60405180910390f35b34801561054e57600080fd5b5061056960048036038101906105649190614a6c565b61148f565b005b34801561057757600080fd5b50610592600480360381019061058d9190614c00565b6114af565b005b3480156105a057600080fd5b506105a9611657565b6040516105b69190616455565b60405180910390f35b3480156105cb57600080fd5b506105e660048036038101906105e19190614c00565b61165d565b6040516105f39190616455565b60405180910390f35b34801561060857600080fd5b50610623600480360381019061061e9190614d4d565b611680565b005b34801561063157600080fd5b5061064c60048036038101906106479190614d11565b611827565b005b34801561065a57600080fd5b5061067560048036038101906106709190614c00565b61195d565b6040516106829190615e4e565b60405180910390f35b34801561069757600080fd5b506106a0611994565b6040516106ad9190615f1d565b60405180910390f35b3480156106c257600080fd5b506106dd60048036038101906106d89190614a07565b611a36565b6040516106ea9190616455565b60405180910390f35b61070d60048036038101906107089190614d89565b611af5565b005b34801561071b57600080fd5b5061073660048036038101906107319190614c65565b611cbc565b005b34801561074457600080fd5b5061075f600480360381019061075a9190614cbd565b611ed4565b005b34801561076d57600080fd5b50610776612001565b6040516107839190616455565b60405180910390f35b34801561079857600080fd5b506107a161200c565b6040516107ae9190616455565b60405180910390f35b3480156107c357600080fd5b506107cc612012565b6040516107d99190615f1d565b60405180910390f35b3480156107ee57600080fd5b506107f76120b4565b6040516108049190616455565b60405180910390f35b34801561081957600080fd5b50610834600480360381019061082f9190614c00565b6120be565b6040516108419190615e4e565b60405180910390f35b34801561085657600080fd5b5061085f6120f1565b60405161086c9190615e4e565b60405180910390f35b34801561088157600080fd5b5061089c60048036038101906108979190614b36565b612117565b005b3480156108aa57600080fd5b506108c560048036038101906108c09190614c00565b612298565b005b3480156108d357600080fd5b506108ee60048036038101906108e99190614c00565b612372565b005b3480156108fc57600080fd5b5061091760048036038101906109129190614abb565b6124ff565b005b34801561092557600080fd5b50610940600480360381019061093b9190614d4d565b612561565b005b34801561094e57600080fd5b5061096960048036038101906109649190614c00565b612697565b6040516109769190615ee7565b60405180910390f35b34801561098b57600080fd5b506109a660048036038101906109a19190614c00565b6126b7565b6040516109b39190615f1d565b60405180910390f35b3480156109c857600080fd5b506109d1612817565b6040516109de9190616455565b60405180910390f35b3480156109f357600080fd5b506109fc61283b565b604051610a099190615e4e565b60405180910390f35b348015610a1e57600080fd5b50610a396004803603810190610a349190614c00565b612861565b604051610a469190615e4e565b60405180910390f35b348015610a5b57600080fd5b50610a64612894565b604051610a71919061641f565b60405180910390f35b348015610a8657600080fd5b50610a8f6128f5565b604051610a9c9190615e4e565b60405180910390f35b348015610ab157600080fd5b50610acc6004803603810190610ac79190614a30565b61291f565b604051610ad99190615ee7565b60405180910390f35b348015610aee57600080fd5b50610b096004803603810190610b049190614c29565b6129b3565b005b348015610b1757600080fd5b50610b326004803603810190610b2d9190614c00565b612ac4565b604051610b3f9190615f02565b60405180910390f35b348015610b5457600080fd5b50610b6f6004803603810190610b6a9190614a07565b612adc565b005b60136020528060005260406000206000915090505481565b6000806000837bffffffffffffffffffffffffffffffffffffffffffffffffffffffff19167bffffffffffffffffffffffffffffffffffffffffffffffffffffffff1916815260200190815260200160002060009054906101000a900460ff169050919050565b606060068054600181600116156101000203166002900480601f016020809104026020016040519081016040528092919081815260200182805460018160011615610100020316600290048015610c885780601f10610c5d57610100808354040283529160200191610c88565b820191906000526020600020905b815481529060010190602001808311610c6b57829003601f168201915b5050505050905090565b6000610c9d82612be7565b610cdc576040517f08c379a0000000000000000000000000000000000000000000000000000000008152600401610cd39061621f565b60405180910390fd5b6004600083815260200190815260200160002060009054906101000a900473ffffffffffffffffffffffffffffffffffffffff169050919050565b6000610d228261195d565b90508073ffffffffffffffffffffffffffffffffffffffff168373ffffffffffffffffffffffffffffffffffffffff161415610d93576040517f08c379a0000000000000000000000000000000000000000000000000000000008152600401610d8a906162ff565b60405180910390fd5b8073ffffffffffffffffffffffffffffffffffffffff16610db2612c04565b73ffffffffffffffffffffffffffffffffffffffff161480610de15750610de081610ddb612c04565b61291f565b5b610e20576040517f08c379a0000000000000000000000000000000000000000000000000000000008152600401610e179061613f565b60405180910390fd5b610e2a8383612c0c565b505050565b73de89fb5bd8f420301fab3930faaef185776c4b0781565b61044181565b606081600073ffffffffffffffffffffffffffffffffffffffff166010600083815260200190815260200160002060009054906101000a900473ffffffffffffffffffffffffffffffffffffffff1673ffffffffffffffffffffffffffffffffffffffff161415610ef3576040517f08c379a0000000000000000000000000000000000000000000000000000000008152600401610eea90615f5f565b60405180910390fd5b601460008481526020019081526020016000208054600181600116156101000203166002900480601f016020809104026020016040519081016040528092919081815260200182805460018160011615610100020316600290048015610f9a5780601f10610f6f57610100808354040283529160200191610f9a565b820191906000526020600020905b815481529060010190602001808311610f7d57829003601f168201915b5050505050915050919050565b6000610fb36002612cc5565b905090565b600c60009054906101000a900473ffffffffffffffffffffffffffffffffffffffff1673ffffffffffffffffffffffffffffffffffffffff163373ffffffffffffffffffffffffffffffffffffffff1614611048576040517f08c379a000000000000000000000000000000000000000000000000000000000815260040161103f90615f7f565b60405180910390fd5b80600b819055507f60dd0ad4d19841e4abbfd59adfb3f4c989fde6a95a01a04575158ff06d6eeb4b8160405161107e9190616455565b60405180910390a150565b6002600a5414156110cf576040517f08c379a00000000000000000000000000000000000000000000000000000000081526004016110c6906163df565b60405180910390fd5b6002600a8190555033836110e38282612cda565b611122576040517f08c379a00000000000000000000000000000000000000000000000000000000081526004016111199061625f565b60405180910390fd5b846000801b6012600083815260200190815260200160002054141561117c576040517f08c379a0000000000000000000000000000000000000000000000000000000008152600401611173906162bf565b60405180910390fd5b84848080601f016020809104026020016040519081016040528093929190818152602001838380828437600081840152601f19601f82011690508083019250505050505050600081511415611206576040517f08c379a00000000000000000000000000000000000000000000000000000000081526004016111fd906163ff565b60405180910390fd5b6112548787878080601f016020809104026020016040519081016040528093929190818152602001838380828437600081840152601f19601f82011690508083019250505050505050612db8565b867f702fe2dc2dc0f68023540aa4a1e11811c0f29112f6ebf01e61b90538e4f2981033888860405161128893929190615eb5565b60405180910390a2505050506001600a81905550505050565b6112b26112ac612c04565b82612cda565b6112f1576040517f08c379a00000000000000000000000000000000000000000000000000000000081526004016112e89061633f565b60405180910390fd5b6112fc838383612e2c565b505050565b6002600a541415611347576040517f08c379a000000000000000000000000000000000000000000000000000000000815260040161133e906163df565b60405180910390fd5b6002600a81905550338161135b8282612cda565b61139a576040517f08c379a00000000000000000000000000000000000000000000000000000000081526004016113919061625f565b60405180910390fd5b600e60009054906101000a900473ffffffffffffffffffffffffffffffffffffffff1673ffffffffffffffffffffffffffffffffffffffff166328220f35846040518263ffffffff1660e01b81526004016113f59190616455565b600060405180830381600087803b15801561140f57600080fd5b505af1158015611423573d6000803e3d6000fd5b5050505050506001600a8190555050565b600061148782600160008673ffffffffffffffffffffffffffffffffffffffff1673ffffffffffffffffffffffffffffffffffffffff168152602001908152602001600020612ef590919063ffffffff16565b905092915050565b6114aa838383604051806020016040528060008152506124ff565b505050565b6002600a5414156114f5576040517f08c379a00000000000000000000000000000000000000000000000000000000081526004016114ec906163df565b60405180910390fd5b6002600a819055508061150781612be7565b611546576040517f08c379a000000000000000000000000000000000000000000000000000000000815260040161153d906163bf565b60405180910390fd5b33826115528282612cda565b611591576040517f08c379a00000000000000000000000000000000000000000000000000000000081526004016115889061625f565b60405180910390fd5b600061159c8561195d565b90508073ffffffffffffffffffffffffffffffffffffffff166010600087815260200190815260200160002060009054906101000a900473ffffffffffffffffffffffffffffffffffffffff1673ffffffffffffffffffffffffffffffffffffffff161461163f576040517f08c379a0000000000000000000000000000000000000000000000000000000008152600401611636906161ff565b60405180910390fd5b61164885612f0f565b505050506001600a8190555050565b600b5481565b60008061167483600261303490919063ffffffff16565b50905080915050919050565b6002600a5414156116c6576040517f08c379a00000000000000000000000000000000000000000000000000000000081526004016116bd906163df565b60405180910390fd5b6002600a81905550816116d881612be7565b611717576040517f08c379a000000000000000000000000000000000000000000000000000000000815260040161170e906163bf565b60405180910390fd5b816040015173ffffffffffffffffffffffffffffffffffffffff163373ffffffffffffffffffffffffffffffffffffffff1614611789576040517f08c379a000000000000000000000000000000000000000000000000000000000815260040161178090615fff565b60405180910390fd5b600e60009054906101000a900473ffffffffffffffffffffffffffffffffffffffff1673ffffffffffffffffffffffffffffffffffffffff1663bdb586988484336040518463ffffffff1660e01b81526004016117e893929190616544565b600060405180830381600087803b15801561180257600080fd5b505af1158015611816573d6000803e3d6000fd5b50505050506001600a819055505050565b6002600a54141561186d576040517f08c379a0000000000000000000000000000000000000000000000000000000008152600401611864906163df565b60405180910390fd5b6002600a8190555033826118818282612cda565b6118c0576040517f08c379a00000000000000000000000000000000000000000000000000000000081526004016118b79061625f565b60405180910390fd5b600e60009054906101000a900473ffffffffffffffffffffffffffffffffffffffff1673ffffffffffffffffffffffffffffffffffffffff166362f24b7085856040518363ffffffff1660e01b815260040161191d9291906164c9565b600060405180830381600087803b15801561193757600080fd5b505af115801561194b573d6000803e3d6000fd5b5050505050506001600a819055505050565b600061198d826040518060600160405280602981526020016168106029913960026130639092919063ffffffff16565b9050919050565b606060098054600181600116156101000203166002900480601f016020809104026020016040519081016040528092919081815260200182805460018160011615610100020316600290048015611a2c5780601f10611a0157610100808354040283529160200191611a2c565b820191906000526020600020905b815481529060010190602001808311611a0f57829003601f168201915b5050505050905090565b60008073ffffffffffffffffffffffffffffffffffffffff168273ffffffffffffffffffffffffffffffffffffffff161415611aa7576040517f08c379a0000000000000000000000000000000000000000000000000000000008152600401611a9e9061615f565b60405180910390fd5b611aee600160008473ffffffffffffffffffffffffffffffffffffffff1673ffffffffffffffffffffffffffffffffffffffff168152602001908152602001600020613082565b9050919050565b6002600a541415611b3b576040517f08c379a0000000000000000000000000000000000000000000000000000000008152600401611b32906163df565b60405180910390fd5b6002600a81905550600c60009054906101000a900473ffffffffffffffffffffffffffffffffffffffff1673ffffffffffffffffffffffffffffffffffffffff163373ffffffffffffffffffffffffffffffffffffffff1614611bde57600b54341015611bdd576040517f08c379a0000000000000000000000000000000000000000000000000000000008152600401611bd49061635f565b60405180910390fd5b5b611bf1823383611bec612894565b613097565b600c60009054906101000a900473ffffffffffffffffffffffffffffffffffffffff1673ffffffffffffffffffffffffffffffffffffffff163373ffffffffffffffffffffffffffffffffffffffff1614611cb057600c60009054906101000a900473ffffffffffffffffffffffffffffffffffffffff1673ffffffffffffffffffffffffffffffffffffffff166108fc349081150290604051600060405180830381858888f19350505050158015611cae573d6000803e3d6000fd5b505b6001600a819055505050565b6002600a541415611d02576040517f08c379a0000000000000000000000000000000000000000000000000000000008152600401611cf9906163df565b60405180910390fd5b6002600a819055503383611d168282612cda565b611d55576040517f08c379a0000000000000000000000000000000000000000000000000000000008152600401611d4c9061625f565b60405180910390fd5b846000801b60136000838152602001908152602001600020541415611daf576040517f08c379a0000000000000000000000000000000000000000000000000000000008152600401611da69061609f565b60405180910390fd5b84848080601f016020809104026020016040519081016040528093929190818152602001838380828437600081840152601f19601f82011690508083019250505050505050600081511415611e39576040517f08c379a0000000000000000000000000000000000000000000000000000000008152600401611e30906163ff565b60405180910390fd5b611e878787878080601f016020809104026020016040519081016040528093929190818152602001838380828437600081840152601f19601f820116905080830192505050505050506135db565b867fe3df41127db820c79e5b8d541a63e40e3e97b9af96f7a50bded13091b70df9ae338888604051611ebb93929190615eb5565b60405180910390a2505050506001600a81905550505050565b3382611ee08282612cda565b611f1f576040517f08c379a0000000000000000000000000000000000000000000000000000000008152600401611f169061625f565b60405180910390fd5b600d600085815260200190815260200160002060009054906101000a900460ff16611f7f576040517f08c379a0000000000000000000000000000000000000000000000000000000008152600401611f7690615fbf565b60405180910390fd5b6000600d600086815260200190815260200160002060006101000a81548160ff0219169083151502179055503373ffffffffffffffffffffffffffffffffffffffff167f9175285cfd95090468bf4b53f596aabe9f07e447eb6b54f0a9235efdcce0f5ea8585604051611ff3929190616499565b60405180910390a250505050565b668e1bc9bf04000081565b612a8a81565b606060078054600181600116156101000203166002900480601f0160208091040260200160405190810160405280929190818152602001828054600181600116156101000203166002900480156120aa5780601f1061207f576101008083540402835291602001916120aa565b820191906000526020600020905b81548152906001019060200180831161208d57829003601f168201915b5050505050905090565b6000600b54905090565b600f6020528060005260406000206000915054906101000a900473ffffffffffffffffffffffffffffffffffffffff1681565b600e60009054906101000a900473ffffffffffffffffffffffffffffffffffffffff1681565b61211f612c04565b73ffffffffffffffffffffffffffffffffffffffff168273ffffffffffffffffffffffffffffffffffffffff16141561218d576040517f08c379a00000000000000000000000000000000000000000000000000000000081526004016121849061607f565b60405180910390fd5b806005600061219a612c04565b73ffffffffffffffffffffffffffffffffffffffff1673ffffffffffffffffffffffffffffffffffffffff16815260200190815260200160002060008473ffffffffffffffffffffffffffffffffffffffff1673ffffffffffffffffffffffffffffffffffffffff16815260200190815260200160002060006101000a81548160ff0219169083151502179055508173ffffffffffffffffffffffffffffffffffffffff16612247612c04565b73ffffffffffffffffffffffffffffffffffffffff167f17307eab39ab6107e8899845ad3d59bd9653f200f220920489ca2b5937696c318360405161228c9190615ee7565b60405180910390a35050565b6002600a5414156122de576040517f08c379a00000000000000000000000000000000000000000000000000000000081526004016122d5906163df565b60405180910390fd5b6002600a819055506122ef81610c92565b73ffffffffffffffffffffffffffffffffffffffff163373ffffffffffffffffffffffffffffffffffffffff161461235c576040517f08c379a00000000000000000000000000000000000000000000000000000000081526004016123539061603f565b60405180910390fd5b612367600082612c0c565b6001600a8190555050565b6002600a5414156123b8576040517f08c379a00000000000000000000000000000000000000000000000000000000081526004016123af906163df565b60405180910390fd5b6002600a8190555080600073ffffffffffffffffffffffffffffffffffffffff166010600083815260200190815260200160002060009054906101000a900473ffffffffffffffffffffffffffffffffffffffff1673ffffffffffffffffffffffffffffffffffffffff161415612464576040517f08c379a000000000000000000000000000000000000000000000000000000000815260040161245b90615f5f565b60405180910390fd5b600e60009054906101000a900473ffffffffffffffffffffffffffffffffffffffff1673ffffffffffffffffffffffffffffffffffffffff1663776a083583336040518363ffffffff1660e01b81526004016124c1929190616470565b600060405180830381600087803b1580156124db57600080fd5b505af11580156124ef573d6000803e3d6000fd5b50505050506001600a8190555050565b61251061250a612c04565b83612cda565b61254f576040517f08c379a00000000000000000000000000000000000000000000000000000000081526004016125469061633f565b60405180910390fd5b61255b84848484613651565b50505050565b6002600a5414156125a7576040517f08c379a000000000000000000000000000000000000000000000000000000000815260040161259e906163df565b60405180910390fd5b6002600a8190555033826125bb8282612cda565b6125fa576040517f08c379a00000000000000000000000000000000000000000000000000000000081526004016125f19061625f565b60405180910390fd5b600e60009054906101000a900473ffffffffffffffffffffffffffffffffffffffff1673ffffffffffffffffffffffffffffffffffffffff1663ba33939985856040518363ffffffff1660e01b815260040161265792919061651b565b600060405180830381600087803b15801561267157600080fd5b505af1158015612685573d6000803e3d6000fd5b5050505050506001600a819055505050565b600d6020528060005260406000206000915054906101000a900460ff1681565b606081600073ffffffffffffffffffffffffffffffffffffffff166010600083815260200190815260200160002060009054906101000a900473ffffffffffffffffffffffffffffffffffffffff1673ffffffffffffffffffffffffffffffffffffffff16141561275d576040517f08c379a000000000000000000000000000000000000000000000000000000000815260040161275490615f5f565b60405180910390fd5b6060600860008581526020019081526020016000208054600181600116156101000203166002900480601f0160208091040260200160405190810160405280929190818152602001828054600181600116156101000203166002900480156128065780601f106127db57610100808354040283529160200191612806565b820191906000526020600020905b8154815290600101906020018083116127e957829003601f168201915b505050505090508092505050919050565b7f152d4f1109f051d3d477f8179dbbc746f65e1abb0d11d796b1943f5ca596c24581565b600c60009054906101000a900473ffffffffffffffffffffffffffffffffffffffff1681565b60106020528060005260406000206000915054906101000a900473ffffffffffffffffffffffffffffffffffffffff1681565b61289c6145b4565b604051806060016040528060405180602001604052806000815250815260200160405180602001604052806012600a0a600502815250815260200160405180602001604052806012600a0a605f02815250815250905090565b6000600c60009054906101000a900473ffffffffffffffffffffffffffffffffffffffff16905090565b6000600560008473ffffffffffffffffffffffffffffffffffffffff1673ffffffffffffffffffffffffffffffffffffffff16815260200190815260200160002060008373ffffffffffffffffffffffffffffffffffffffff1673ffffffffffffffffffffffffffffffffffffffff16815260200190815260200160002060009054906101000a900460ff16905092915050565b600e60009054906101000a900473ffffffffffffffffffffffffffffffffffffffff1673ffffffffffffffffffffffffffffffffffffffff163373ffffffffffffffffffffffffffffffffffffffff1614612a43576040517f08c379a0000000000000000000000000000000000000000000000000000000008152600401612a3a906161bf565b60405180910390fd5b612a4c8261195d565b600f600084815260200190815260200160002060006101000a81548173ffffffffffffffffffffffffffffffffffffffff021916908373ffffffffffffffffffffffffffffffffffffffff160217905550612ac0612aa98361195d565b828460405180602001604052806000815250613651565b5050565b60126020528060005260406000206000915090505481565b600c60009054906101000a900473ffffffffffffffffffffffffffffffffffffffff1673ffffffffffffffffffffffffffffffffffffffff163373ffffffffffffffffffffffffffffffffffffffff1614612b6c576040517f08c379a0000000000000000000000000000000000000000000000000000000008152600401612b639061601f565b60405180910390fd5b80600c60006101000a81548173ffffffffffffffffffffffffffffffffffffffff021916908373ffffffffffffffffffffffffffffffffffffffff1602179055507f0d8eb149859b88d6932b25f3ba953e5eb11cad6b096a85eb618feedbd31e90b181604051612bdc9190615e4e565b60405180910390a150565b6000612bfd8260026136ad90919063ffffffff16565b9050919050565b600033905090565b816004600083815260200190815260200160002060006101000a81548173ffffffffffffffffffffffffffffffffffffffff021916908373ffffffffffffffffffffffffffffffffffffffff160217905550808273ffffffffffffffffffffffffffffffffffffffff16612c7f8361195d565b73ffffffffffffffffffffffffffffffffffffffff167f8c5be1e5ebec7d5bd14f71427d1e84f3dd0314c0f7b2291e5b200ac8c7c3b92560405160405180910390a45050565b6000612cd3826000016136c7565b9050919050565b6000612ce582612be7565b612d24576040517f08c379a0000000000000000000000000000000000000000000000000000000008152600401612d1b9061611f565b60405180910390fd5b6000612d2f8361195d565b90508073ffffffffffffffffffffffffffffffffffffffff168473ffffffffffffffffffffffffffffffffffffffff161480612d9e57508373ffffffffffffffffffffffffffffffffffffffff16612d8684610c92565b73ffffffffffffffffffffffffffffffffffffffff16145b80612daf5750612dae818561291f565b5b91505092915050565b612dc182612be7565b612e00576040517f08c379a0000000000000000000000000000000000000000000000000000000008152600401612df79061623f565b60405180910390fd5b80600860008481526020019081526020016000209080519060200190612e279291906145e7565b505050565b600e60009054906101000a900473ffffffffffffffffffffffffffffffffffffffff1673ffffffffffffffffffffffffffffffffffffffff166328220f35826040518263ffffffff1660e01b8152600401612e879190616455565b600060405180830381600087803b158015612ea157600080fd5b505af1158015612eb5573d6000803e3d6000fd5b50505050612ec48383836136d8565b6001600d600083815260200190815260200160002060006101000a81548160ff021916908315150217905550505050565b6000612f0483600001836138ef565b60001c905092915050565b6060600860008381526020019081526020016000208054600181600116156101000203166002900480601f016020809104026020016040519081016040528092919081815260200182805460018160011615610100020316600290048015612fb85780601f10612f8d57610100808354040283529160200191612fb8565b820191906000526020600020905b815481529060010190602001808311612f9b57829003601f168201915b50505050509050612fc88261395c565b6000815114612ffa5780600860008481526020019081526020016000209080519060200190612ff89291906145e7565b505b600f600083815260200190815260200160002060006101000a81549073ffffffffffffffffffffffffffffffffffffffff02191690555050565b6000806000806130478660000186613a96565b915091508160001c8160001c8090509350935050509250929050565b6000613076846000018460001b84613b19565b60001c90509392505050565b600061309082600001613baa565b9050919050565b81600001516000815114156130e1576040517f08c379a00000000000000000000000000000000000000000000000000000000081526004016130d8906163ff565b60405180910390fd5b826020015160008151141561312b576040517f08c379a0000000000000000000000000000000000000000000000000000000008152600401613122906163ff565b60405180910390fd5b6000801b84604001511415613175576040517f08c379a000000000000000000000000000000000000000000000000000000000815260040161316c906160df565b60405180910390fd5b60001515601560008660400151815260200190815260200160002060009054906101000a900460ff161515146131e0576040517f08c379a00000000000000000000000000000000000000000000000000000000081526004016131d79061617f565b60405180910390fd5b6000801b8460600151141561322a576040517f08c379a0000000000000000000000000000000000000000000000000000000008152600401613221906162df565b60405180910390fd5b61323386612be7565b15613273576040517f08c379a000000000000000000000000000000000000000000000000000000000815260040161326a9061639f565b60405180910390fd5b600086101580156132855750612a8a86105b6132c4576040517f08c379a00000000000000000000000000000000000000000000000000000000081526004016132bb906160bf565b60405180910390fd5b600c60009054906101000a900473ffffffffffffffffffffffffffffffffffffffff1673ffffffffffffffffffffffffffffffffffffffff168573ffffffffffffffffffffffffffffffffffffffff16146133675761044161ffff16861015613362576040517f08c379a00000000000000000000000000000000000000000000000000000000081526004016133599061631f565b60405180910390fd5b6133b0565b61044161ffff1686106133af576040517f08c379a00000000000000000000000000000000000000000000000000000000081526004016133a69061627f565b60405180910390fd5b5b6133ba8587613bbb565b6133c8868560400151613bd9565b6133d6868560600151613c3f565b6133e48685602001516135db565b6133f2868560000151612db8565b6001600d600088815260200190815260200160002060006101000a81548160ff02191690831515021790555061346f86601160008873ffffffffffffffffffffffffffffffffffffffff1673ffffffffffffffffffffffffffffffffffffffff168152602001908152602001600020613ca590919063ffffffff16565b506001601560008660400151815260200190815260200160002060006101000a81548160ff021916908315150217905550846010600088815260200190815260200160002060006101000a81548173ffffffffffffffffffffffffffffffffffffffff021916908373ffffffffffffffffffffffffffffffffffffffff16021790555084600f600088815260200190815260200160002060006101000a81548173ffffffffffffffffffffffffffffffffffffffff021916908373ffffffffffffffffffffffffffffffffffffffff160217905550600e60009054906101000a900473ffffffffffffffffffffffffffffffffffffffff1673ffffffffffffffffffffffffffffffffffffffff1663eb55683a87856040518363ffffffff1660e01b81526004016135a19291906164f2565b600060405180830381600087803b1580156135bb57600080fd5b505af11580156135cf573d6000803e3d6000fd5b50505050505050505050565b816135e581612be7565b613624576040517f08c379a000000000000000000000000000000000000000000000000000000000815260040161361b906163bf565b60405180910390fd5b8160146000858152602001908152602001600020908051906020019061364b9291906145e7565b50505050565b61365c848484612e2c565b61366884848484613cbf565b6136a7576040517f08c379a000000000000000000000000000000000000000000000000000000000815260040161369e90615f9f565b60405180910390fd5b50505050565b60006136bf836000018360001b613e23565b905092915050565b600081600001805490509050919050565b8273ffffffffffffffffffffffffffffffffffffffff166136f88261195d565b73ffffffffffffffffffffffffffffffffffffffff161461374e576040517f08c379a00000000000000000000000000000000000000000000000000000000081526004016137459061629f565b60405180910390fd5b600073ffffffffffffffffffffffffffffffffffffffff168273ffffffffffffffffffffffffffffffffffffffff1614156137be576040517f08c379a00000000000000000000000000000000000000000000000000000000081526004016137b59061605f565b60405180910390fd5b6137c9838383613e46565b6137d4600082612c0c565b61382581600160008673ffffffffffffffffffffffffffffffffffffffff1673ffffffffffffffffffffffffffffffffffffffff168152602001908152602001600020613e4b90919063ffffffff16565b5061387781600160008573ffffffffffffffffffffffffffffffffffffffff1673ffffffffffffffffffffffffffffffffffffffff168152602001908152602001600020613ca590919063ffffffff16565b5061388e81836002613e659092919063ffffffff16565b50808273ffffffffffffffffffffffffffffffffffffffff168473ffffffffffffffffffffffffffffffffffffffff167fddf252ad1be2c89b69c2b068fc378daa952ba7f163c4a11628f55a4df523b3ef60405160405180910390a4505050565b60008183600001805490501161393a576040517f08c379a000000000000000000000000000000000000000000000000000000000815260040161393190615f3f565b60405180910390fd5b82600001828154811061394957fe5b9060005260206000200154905092915050565b60006139678261195d565b905061397581600084613e46565b613980600083612c0c565b600060086000848152602001908152602001600020805460018160011615610100020316600290049050146139cf576008600083815260200190815260200160002060006139ce9190614667565b5b613a2082600160008473ffffffffffffffffffffffffffffffffffffffff1673ffffffffffffffffffffffffffffffffffffffff168152602001908152602001600020613e4b90919063ffffffff16565b50613a35826002613e9a90919063ffffffff16565b5081600073ffffffffffffffffffffffffffffffffffffffff168273ffffffffffffffffffffffffffffffffffffffff167fddf252ad1be2c89b69c2b068fc378daa952ba7f163c4a11628f55a4df523b3ef60405160405180910390a45050565b60008082846000018054905011613ae2576040517f08c379a0000000000000000000000000000000000000000000000000000000008152600401613ad99061619f565b60405180910390fd5b6000846000018481548110613af357fe5b906000526020600020906002020190508060000154816001015492509250509250929050565b60008084600101600085815260200190815260200160002054905060008114158390613b7b576040517f08c379a0000000000000000000000000000000000000000000000000000000008152600401613b729190615f1d565b60405180910390fd5b50846000016001820381548110613b8e57fe5b9060005260206000209060020201600101549150509392505050565b600081600001805490509050919050565b613bd5828260405180602001604052806000815250613eb4565b5050565b81613be381612be7565b613c22576040517f08c379a0000000000000000000000000000000000000000000000000000000008152600401613c19906163bf565b60405180910390fd5b816012600085815260200190815260200160002081905550505050565b81613c4981612be7565b613c88576040517f08c379a0000000000000000000000000000000000000000000000000000000008152600401613c7f906163bf565b60405180910390fd5b816013600085815260200190815260200160002081905550505050565b6000613cb7836000018360001b613f0f565b905092915050565b6000613ce08473ffffffffffffffffffffffffffffffffffffffff16613f7f565b613ced5760019050613e1b565b6060613db463150b7a0260e01b613d02612c04565b888787604051602401613d189493929190615e69565b604051602081830303815290604052907bffffffffffffffffffffffffffffffffffffffffffffffffffffffff19166020820180517bffffffffffffffffffffffffffffffffffffffffffffffffffffffff83818316178352505050506040518060600160405280603281526020016167de603291398773ffffffffffffffffffffffffffffffffffffffff16613f929092919063ffffffff16565b9050600081806020019051810190613dcc9190614bd7565b905063150b7a0260e01b7bffffffffffffffffffffffffffffffffffffffffffffffffffffffff1916817bffffffffffffffffffffffffffffffffffffffffffffffffffffffff191614925050505b949350505050565b600080836001016000848152602001908152602001600020541415905092915050565b505050565b6000613e5d836000018360001b613faa565b905092915050565b6000613e91846000018460001b8473ffffffffffffffffffffffffffffffffffffffff1660001b614092565b90509392505050565b6000613eac836000018360001b61416e565b905092915050565b613ebe8383614287565b613ecb6000848484613cbf565b613f0a576040517f08c379a0000000000000000000000000000000000000000000000000000000008152600401613f0190615f9f565b60405180910390fd5b505050565b6000613f1b8383614415565b613f74578260000182908060018154018082558091505060019003906000526020600020016000909190919091505582600001805490508360010160008481526020019081526020016000208190555060019050613f79565b600090505b92915050565b600080823b905060008111915050919050565b6060613fa18484600085614438565b90509392505050565b600080836001016000848152602001908152602001600020549050600081146140865760006001820390506000600186600001805490500390506000866000018281548110613ff557fe5b906000526020600020015490508087600001848154811061401257fe5b906000526020600020018190555060018301876001016000838152602001908152602001600020819055508660000180548061404a57fe5b6001900381819060005260206000200160009055905586600101600087815260200190815260200160002060009055600194505050505061408c565b60009150505b92915050565b600080846001016000858152602001908152602001600020549050600081141561413957846000016040518060400160405280868152602001858152509080600181540180825580915050600190039060005260206000209060020201600090919091909150600082015181600001556020820151816001015550508460000180549050856001016000868152602001908152602001600020819055506001915050614167565b8285600001600183038154811061414c57fe5b90600052602060002090600202016001018190555060009150505b9392505050565b6000808360010160008481526020019081526020016000205490506000811461427b57600060018203905060006001866000018054905003905060008660000182815481106141b957fe5b90600052602060002090600202019050808760000184815481106141d957fe5b906000526020600020906002020160008201548160000155600182015481600101559050506001830187600101600083600001548152602001908152602001600020819055508660000180548061422c57fe5b6001900381819060005260206000209060020201600080820160009055600182016000905550509055866001016000878152602001908152602001600020600090556001945050505050614281565b60009150505b92915050565b600073ffffffffffffffffffffffffffffffffffffffff168273ffffffffffffffffffffffffffffffffffffffff1614156142f7576040517f08c379a00000000000000000000000000000000000000000000000000000000081526004016142ee906161df565b60405180910390fd5b61430081612be7565b15614340576040517f08c379a000000000000000000000000000000000000000000000000000000000815260040161433790615fdf565b60405180910390fd5b61434c60008383613e46565b61439d81600160008573ffffffffffffffffffffffffffffffffffffffff1673ffffffffffffffffffffffffffffffffffffffff168152602001908152602001600020613ca590919063ffffffff16565b506143b481836002613e659092919063ffffffff16565b50808273ffffffffffffffffffffffffffffffffffffffff16600073ffffffffffffffffffffffffffffffffffffffff167fddf252ad1be2c89b69c2b068fc378daa952ba7f163c4a11628f55a4df523b3ef60405160405180910390a45050565b600080836001016000848152602001908152602001600020541415905092915050565b60608247101561447d576040517f08c379a0000000000000000000000000000000000000000000000000000000008152600401614474906160ff565b60405180910390fd5b61448685613f7f565b6144c5576040517f08c379a00000000000000000000000000000000000000000000000000000000081526004016144bc9061637f565b60405180910390fd5b600060608673ffffffffffffffffffffffffffffffffffffffff1685876040516144ef9190615e37565b60006040518083038185875af1925050503d806000811461452c576040519150601f19603f3d011682016040523d82523d6000602084013e614531565b606091505b509150915061454182828661454d565b92505050949350505050565b6060831561455d578290506145ad565b6000835111156145705782518084602001fd5b816040517f08c379a00000000000000000000000000000000000000000000000000000000081526004016145a49190615f1d565b60405180910390fd5b9392505050565b60405180606001604052806145c76146af565b81526020016145d46146af565b81526020016145e16146af565b81525090565b828054600181600116156101000203166002900490600052602060002090601f016020900481019282601f1061462857805160ff1916838001178555614656565b82800160010185558215614656579182015b8281111561465557825182559160200191906001019061463a565b5b50905061466391906146c2565b5090565b50805460018160011615610100020316600290046000825580601f1061468d57506146ac565b601f0160209004906000526020600020908101906146ab91906146c2565b5b50565b6040518060200160405280600081525090565b6146e491905b808211156146e05760008160009055506001016146c8565b5090565b90565b6000813590506146f68161676a565b92915050565b60008135905061470b81616781565b92915050565b60008135905061472081616798565b92915050565b600081359050614735816167af565b92915050565b60008151905061474a816167af565b92915050565b600082601f83011261476157600080fd5b813561477461476f826165a8565b61657b565b9150808252602083016020830185838301111561479057600080fd5b61479b838284616717565b50505092915050565b60008083601f8401126147b657600080fd5b8235905067ffffffffffffffff8111156147cf57600080fd5b6020830191508360018202830111156147e757600080fd5b9250929050565b600082601f8301126147ff57600080fd5b813561481261480d826165d4565b61657b565b9150808252602083016020830185838301111561482e57600080fd5b614839838284616717565b50505092915050565b60006040828403121561485457600080fd5b61485e604061657b565b9050600061486e848285016149f2565b6000830152506020614882848285016146e7565b60208301525092915050565b600060a082840312156148a057600080fd5b6148aa60a061657b565b905060006148ba848285016149f2565b60008301525060206148ce848285016146e7565b60208301525060406148e2848285016146e7565b60408301525060606148f6848285016146e7565b606083015250608061490a84828501614916565b60808301525092915050565b60006020828403121561492857600080fd5b614932602061657b565b90506000614942848285016149f2565b60008301525092915050565b60006080828403121561496057600080fd5b61496a608061657b565b9050600082013567ffffffffffffffff81111561498657600080fd5b614992848285016147ee565b600083015250602082013567ffffffffffffffff8111156149b257600080fd5b6149be848285016147ee565b60208301525060406149d284828501614711565b60408301525060606149e684828501614711565b60608301525092915050565b600081359050614a01816167c6565b92915050565b600060208284031215614a1957600080fd5b6000614a27848285016146e7565b91505092915050565b60008060408385031215614a4357600080fd5b6000614a51858286016146e7565b9250506020614a62858286016146e7565b9150509250929050565b600080600060608486031215614a8157600080fd5b6000614a8f868287016146e7565b9350506020614aa0868287016146e7565b9250506040614ab1868287016149f2565b9150509250925092565b60008060008060808587031215614ad157600080fd5b6000614adf878288016146e7565b9450506020614af0878288016146e7565b9350506040614b01878288016149f2565b925050606085013567ffffffffffffffff811115614b1e57600080fd5b614b2a87828801614750565b91505092959194509250565b60008060408385031215614b4957600080fd5b6000614b57858286016146e7565b9250506020614b68858286016146fc565b9150509250929050565b60008060408385031215614b8557600080fd5b6000614b93858286016146e7565b9250506020614ba4858286016149f2565b9150509250929050565b600060208284031215614bc057600080fd5b6000614bce84828501614726565b91505092915050565b600060208284031215614be957600080fd5b6000614bf78482850161473b565b91505092915050565b600060208284031215614c1257600080fd5b6000614c20848285016149f2565b91505092915050565b60008060408385031215614c3c57600080fd5b6000614c4a858286016149f2565b9250506020614c5b858286016146e7565b9150509250929050565b600080600060408486031215614c7a57600080fd5b6000614c88868287016149f2565b935050602084013567ffffffffffffffff811115614ca557600080fd5b614cb1868287016147a4565b92509250509250925092565b60008060408385031215614cd057600080fd5b6000614cde858286016149f2565b925050602083013567ffffffffffffffff811115614cfb57600080fd5b614d07858286016147ee565b9150509250929050565b60008060608385031215614d2457600080fd5b6000614d32858286016149f2565b9250506020614d4385828601614842565b9150509250929050565b60008060c08385031215614d6057600080fd5b6000614d6e858286016149f2565b9250506020614d7f8582860161488e565b9150509250929050565b60008060408385031215614d9c57600080fd5b6000614daa858286016149f2565b925050602083013567ffffffffffffffff811115614dc757600080fd5b614dd38582860161494e565b9150509250929050565b614de6816166e1565b82525050565b614df581616655565b82525050565b614e0481616643565b82525050565b614e1381616643565b82525050565b614e2281616667565b82525050565b614e3181616673565b82525050565b6000614e4282616600565b614e4c8185616616565b9350614e5c818560208601616726565b614e6581616759565b840191505092915050565b6000614e7b82616600565b614e858185616627565b9350614e95818560208601616726565b80840191505092915050565b6000614ead8385616632565b9350614eba838584616717565b614ec383616759565b840190509392505050565b6000614ed98261660b565b614ee38185616632565b9350614ef3818560208601616726565b614efc81616759565b840191505092915050565b6000614f14602283616632565b91507f456e756d657261626c655365743a20696e646578206f7574206f6620626f756e60008301527f64730000000000000000000000000000000000000000000000000000000000006020830152604082019050919050565b6000614f7a602883616632565b91507f4d656469613a20746f6b656e2077697468207468617420696420646f6573206e60008301527f6f742065786973740000000000000000000000000000000000000000000000006020830152604082019050919050565b6000614fe0602783616632565b91507f4d656469613a206f6e6c7920646576656c6f7065722063616e2073657420746860008301527f65207072696365000000000000000000000000000000000000000000000000006020830152604082019050919050565b6000615046603283616632565b91507f4552433732313a207472616e7366657220746f206e6f6e20455243373231526560008301527f63656976657220696d706c656d656e74657200000000000000000000000000006020830152604082019050919050565b60006150ac603183616632565b91507f43727970746f6c6f76656c6f636b3a20596f7520616c72656164792063686f7360008301527f656e20796f7572206c6f7665206e6f74650000000000000000000000000000006020830152604082019050919050565b6000615112601c83616632565b91507f4552433732313a20746f6b656e20616c7265616479206d696e746564000000006000830152602082019050919050565b6000615152602183616632565b91507f4d61726b65743a20426964646572206d757374206265206d73672073656e646560008301527f72000000000000000000000000000000000000000000000000000000000000006020830152604082019050919050565b60006151b8602e83616632565b91507f4d656469613a206f6e6c7920646576656c6f7065722063616e206368616e676560008301527f2074686520646576656c6f7065720000000000000000000000000000000000006020830152604082019050919050565b600061521e602283616632565b91507f4d656469613a2063616c6c6572206e6f7420617070726f76656420616464726560008301527f73730000000000000000000000000000000000000000000000000000000000006020830152604082019050919050565b6000615284602483616632565b91507f4552433732313a207472616e7366657220746f20746865207a65726f2061646460008301527f72657373000000000000000000000000000000000000000000000000000000006020830152604082019050919050565b60006152ea601983616632565b91507f4552433732313a20617070726f766520746f2063616c6c6572000000000000006000830152602082019050919050565b600061532a602f83616632565b91507f4d656469613a20746f6b656e20646f6573206e6f74206861766520686173682060008301527f6f6620697473206d6574616461746100000000000000000000000000000000006020830152604082019050919050565b6000615390602683616632565b91507f4d656469613a20636f6c6c656374696f6e206861732061206c696d697465642060008301527f737570706c7900000000000000000000000000000000000000000000000000006020830152604082019050919050565b60006153f6602483616632565b91507f4d656469613a20636f6e74656e742068617368206d757374206265206e6f6e2d60008301527f7a65726f000000000000000000000000000000000000000000000000000000006020830152604082019050919050565b600061545c602683616632565b91507f416464726573733a20696e73756666696369656e742062616c616e636520666f60008301527f722063616c6c00000000000000000000000000000000000000000000000000006020830152604082019050919050565b60006154c2602c83616632565b91507f4552433732313a206f70657261746f7220717565727920666f72206e6f6e657860008301527f697374656e7420746f6b656e00000000000000000000000000000000000000006020830152604082019050919050565b6000615528603883616632565b91507f4552433732313a20617070726f76652063616c6c6572206973206e6f74206f7760008301527f6e6572206e6f7220617070726f76656420666f7220616c6c00000000000000006020830152604082019050919050565b600061558e602a83616632565b91507f4552433732313a2062616c616e636520717565727920666f7220746865207a6560008301527f726f2061646472657373000000000000000000000000000000000000000000006020830152604082019050919050565b60006155f4603e83616632565b91507f4d656469613a206120746f6b656e2068617320616c7265616479206265656e2060008301527f637265617465642077697468207468697320636f6e74656e74206861736800006020830152604082019050919050565b600061565a602283616632565b91507f456e756d657261626c654d61703a20696e646578206f7574206f6620626f756e60008301527f64730000000000000000000000000000000000000000000000000000000000006020830152604082019050919050565b60006156c0601b83616632565b91507f4d656469613a206f6e6c79206d61726b657420636f6e747261637400000000006000830152602082019050919050565b6000615700602083616632565b91507f4552433732313a206d696e7420746f20746865207a65726f20616464726573736000830152602082019050919050565b6000615740602483616632565b91507f4d656469613a206f776e6572206973206e6f742063726561746f72206f66206d60008301527f65646961000000000000000000000000000000000000000000000000000000006020830152604082019050919050565b60006157a6602c83616632565b91507f4552433732313a20617070726f76656420717565727920666f72206e6f6e657860008301527f697374656e7420746f6b656e00000000000000000000000000000000000000006020830152604082019050919050565b600061580c602c83616632565b91507f4552433732314d657461646174613a2055524920736574206f66206e6f6e657860008301527f697374656e7420746f6b656e00000000000000000000000000000000000000006020830152604082019050919050565b6000615872601d83616632565b91507f4d656469613a204f6e6c7920617070726f766564206f72206f776e65720000006000830152602082019050919050565b60006158b2603a83616632565b91507f4d656469613a20646576656c6f7065722063616e206d696e74206f6e6c79207460008301527f6f6b656e206c65667420666f72206675747572652073616c65730000000000006020830152604082019050919050565b6000615918602983616632565b91507f4552433732313a207472616e73666572206f6620746f6b656e2074686174206960008301527f73206e6f74206f776e00000000000000000000000000000000000000000000006020830152604082019050919050565b600061597e603283616632565b91507f4d656469613a20746f6b656e20646f6573206e6f74206861766520686173682060008301527f6f66206372656174656420636f6e74656e7400000000000000000000000000006020830152604082019050919050565b60006159e4602583616632565b91507f4d656469613a206d657461646174612068617368206d757374206265206e6f6e60008301527f2d7a65726f0000000000000000000000000000000000000000000000000000006020830152604082019050919050565b6000615a4a602183616632565b91507f4552433732313a20617070726f76616c20746f2063757272656e74206f776e6560008301527f72000000000000000000000000000000000000000000000000000000000000006020830152604082019050919050565b6000615ab0602a83616632565b91507f4d656469613a207468697320746f6b656e206973206c65667420666f7220667560008301527f747572652073616c6573000000000000000000000000000000000000000000006020830152604082019050919050565b6000615b16603183616632565b91507f4552433732313a207472616e736665722063616c6c6572206973206e6f74206f60008301527f776e6572206e6f7220617070726f7665640000000000000000000000000000006020830152604082019050919050565b6000615b7c601683616632565b91507f4d656469613a207072696365206e6f74207061796564000000000000000000006000830152602082019050919050565b6000615bbc601d83616632565b91507f416464726573733a2063616c6c20746f206e6f6e2d636f6e74726163740000006000830152602082019050919050565b6000615bfc601b83616632565b91507f4d656469613a20746f6b656e20616c72656164792065786973747300000000006000830152602082019050919050565b6000615c3c601883616632565b91507f4d656469613a206e6f6e6578697374656e7420746f6b656e00000000000000006000830152602082019050919050565b6000615c7c601f83616632565b91507f5265656e7472616e637947756172643a207265656e7472616e742063616c6c006000830152602082019050919050565b6000615cbc602683616632565b91507f4d656469613a2073706563696669656420757269206d757374206265206e6f6e60008301527f2d656d70747900000000000000000000000000000000000000000000000000006020830152604082019050919050565b604082016000820151615d2b6000850182615e19565b506020820151615d3e6020850182614dfb565b50505050565b606082016000820151615d5a6000850182615dee565b506020820151615d6d6020850182615dee565b506040820151615d806040850182615dee565b50505050565b60a082016000820151615d9c6000850182615e19565b506020820151615daf6020850182614dfb565b506040820151615dc26040850182614dfb565b506060820151615dd56060850182614dfb565b506080820151615de86080850182615dee565b50505050565b602082016000820151615e046000850182615e19565b50505050565b615e13816166a9565b82525050565b615e22816166d7565b82525050565b615e31816166d7565b82525050565b6000615e438284614e70565b915081905092915050565b6000602082019050615e636000830184614e0a565b92915050565b6000608082019050615e7e6000830187614dec565b615e8b6020830186614e0a565b615e986040830185615e28565b8181036060830152615eaa8184614e37565b905095945050505050565b6000604082019050615eca6000830186614ddd565b8181036020830152615edd818486614ea1565b9050949350505050565b6000602082019050615efc6000830184614e19565b92915050565b6000602082019050615f176000830184614e28565b92915050565b60006020820190508181036000830152615f378184614ece565b905092915050565b60006020820190508181036000830152615f5881614f07565b9050919050565b60006020820190508181036000830152615f7881614f6d565b9050919050565b60006020820190508181036000830152615f9881614fd3565b9050919050565b60006020820190508181036000830152615fb881615039565b9050919050565b60006020820190508181036000830152615fd88161509f565b9050919050565b60006020820190508181036000830152615ff881615105565b9050919050565b6000602082019050818103600083015261601881615145565b9050919050565b60006020820190508181036000830152616038816151ab565b9050919050565b6000602082019050818103600083015261605881615211565b9050919050565b6000602082019050818103600083015261607881615277565b9050919050565b60006020820190508181036000830152616098816152dd565b9050919050565b600060208201905081810360008301526160b88161531d565b9050919050565b600060208201905081810360008301526160d881615383565b9050919050565b600060208201905081810360008301526160f8816153e9565b9050919050565b600060208201905081810360008301526161188161544f565b9050919050565b60006020820190508181036000830152616138816154b5565b9050919050565b600060208201905081810360008301526161588161551b565b9050919050565b6000602082019050818103600083015261617881615581565b9050919050565b60006020820190508181036000830152616198816155e7565b9050919050565b600060208201905081810360008301526161b88161564d565b9050919050565b600060208201905081810360008301526161d8816156b3565b9050919050565b600060208201905081810360008301526161f8816156f3565b9050919050565b6000602082019050818103600083015261621881615733565b9050919050565b6000602082019050818103600083015261623881615799565b9050919050565b60006020820190508181036000830152616258816157ff565b9050919050565b6000602082019050818103600083015261627881615865565b9050919050565b60006020820190508181036000830152616298816158a5565b9050919050565b600060208201905081810360008301526162b88161590b565b9050919050565b600060208201905081810360008301526162d881615971565b9050919050565b600060208201905081810360008301526162f8816159d7565b9050919050565b6000602082019050818103600083015261631881615a3d565b9050919050565b6000602082019050818103600083015261633881615aa3565b9050919050565b6000602082019050818103600083015261635881615b09565b9050919050565b6000602082019050818103600083015261637881615b6f565b9050919050565b6000602082019050818103600083015261639881615baf565b9050919050565b600060208201905081810360008301526163b881615bef565b9050919050565b600060208201905081810360008301526163d881615c2f565b9050919050565b600060208201905081810360008301526163f881615c6f565b9050919050565b6000602082019050818103600083015261641881615caf565b9050919050565b60006060820190506164346000830184615d44565b92915050565b600060208201905061644f6000830184615e0a565b92915050565b600060208201905061646a6000830184615e28565b92915050565b60006040820190506164856000830185615e28565b6164926020830184614ddd565b9392505050565b60006040820190506164ae6000830185615e28565b81810360208301526164c08184614ece565b90509392505050565b60006060820190506164de6000830185615e28565b6164eb6020830184615d15565b9392505050565b60006080820190506165076000830185615e28565b6165146020830184615d44565b9392505050565b600060c0820190506165306000830185615e28565b61653d6020830184615d86565b9392505050565b600060e0820190506165596000830186615e28565b6165666020830185615d86565b61657360c0830184614ddd565b949350505050565b6000604051905081810181811067ffffffffffffffff8211171561659e57600080fd5b8060405250919050565b600067ffffffffffffffff8211156165bf57600080fd5b601f19601f8301169050602081019050919050565b600067ffffffffffffffff8211156165eb57600080fd5b601f19601f8301169050602081019050919050565b600081519050919050565b600081519050919050565b600082825260208201905092915050565b600081905092915050565b600082825260208201905092915050565b600061664e826166b7565b9050919050565b6000616660826166b7565b9050919050565b60008115159050919050565b6000819050919050565b60007fffffffff0000000000000000000000000000000000000000000000000000000082169050919050565b600061ffff82169050919050565b600073ffffffffffffffffffffffffffffffffffffffff82169050919050565b6000819050919050565b60006166ec826166f3565b9050919050565b60006166fe82616705565b9050919050565b6000616710826166b7565b9050919050565b82818337600083830152505050565b60005b83811015616744578082015181840152602081019050616729565b83811115616753576000848401525b50505050565b6000601f19601f8301169050919050565b61677381616643565b811461677e57600080fd5b50565b61678a81616667565b811461679557600080fd5b50565b6167a181616673565b81146167ac57600080fd5b50565b6167b88161667d565b81146167c357600080fd5b50565b6167cf816166d7565b81146167da57600080fd5b5056fe4552433732313a207472616e7366657220746f206e6f6e20455243373231526563656976657220696d706c656d656e7465724552433732313a206f776e657220717565727920666f72206e6f6e6578697374656e7420746f6b656ea26469706673582212206fcef94d6912b3ea5a8f64aa279701df7bb0801ff01a6b8c829397368a08c9bc64736f6c63430006080033",
  "immutableReferences": {},
  "source": "// SPDX-License-Identifier: GPL-3.0\npragma solidity 0.6.8;\npragma experimental ABIEncoderV2;\n\nimport {ERC721Burnable} from \"./ERC721Burnable.sol\";\nimport {ERC721} from \"./ERC721.sol\";\nimport {EnumerableSet} from \"@openzeppelin/contracts/utils/EnumerableSet.sol\";\nimport {Counters} from \"@openzeppelin/contracts/utils/Counters.sol\";\nimport {SafeMath} from \"@openzeppelin/contracts/math/SafeMath.sol\";\nimport {Math} from \"@openzeppelin/contracts/math/Math.sol\";\nimport {IERC20} from \"@openzeppelin/contracts/token/ERC20/IERC20.sol\";\nimport {\n    ReentrancyGuard\n} from \"@openzeppelin/contracts/utils/ReentrancyGuard.sol\";\nimport {Decimal} from \"./Decimal.sol\";\nimport {IMarket} from \"./interfaces/IMarket.sol\";\nimport \"./interfaces/IMedia.sol\";\n\n/**\n * @title A media value system, with perpetual equity to creators\n * @notice This contract provides an interface to mint media with a market\n * owned by the creator.\n */\ncontract Media is IMedia, ERC721Burnable, ReentrancyGuard {\n    using Counters for Counters.Counter;\n    using SafeMath for uint256;\n\n    /* *******\n     * Events\n     * *******/\n\n    event CurrentPriceChanged(\n        uint256 _currentPrice        \n    );\n\n    event DeveloperChanged(\n        address _developer        \n    );\n\n    event SetMessage(\n        address indexed _from,\n        uint256 _token,\n        string _msg\n    );\n\n    /* *******\n     * Globals\n     * *******\n     */\n\n    // Hash of \n    uint256 public constant COLLECTION_LIBRARY_HASH = 0x152d4f1109f051d3d477f8179dbbc746f65e1abb0d11d796b1943f5ca596c245;\n\n    // Developer address\n    address public constant INITIAL_DEVELOPER_ADDRESS = 0xDE89fb5bd8f420301fAB3930fAaEf185776c4b07;\n\n    // Initial cryptolovelock price\n    uint256 public constant INITIAL_PRICE = 0.04e18;\n\n    // First 1089 tokens are reserved for future sales\n    uint16 public constant RESERVED_FOR_FUTURE_SALES = 1089;\n\n    // Total number of token available\n    uint256 public constant TOTAL_SUPPLY = 10890;\n\n    // Current price for Cryptolovelock\n    uint256 public crytolovelockPrice;\n\n    // Developer of Cryptolovelocks\n    address public developer;\n\n    // When true the owner of the token specified by the key\n    // can set the love note: when owner set a love note this flag is\n    // resetted.\n    // We set this flag to true when token is transferred.\n    mapping(uint256 => bool) public _canSetMessage;\n\n    // Address for the market\n    address public marketContract;\n\n    // Mapping from token to previous owner of the token\n    mapping(uint256 => address) public previousTokenOwners;\n\n    // Mapping from token id to creator address\n    mapping(uint256 => address) public tokenCreators;\n\n    // Mapping from creator address to their (enumerable) set of created tokens\n    mapping(address => EnumerableSet.UintSet) private _creatorTokens;\n\n    // Mapping from token id to sha256 hash of content\n    mapping(uint256 => bytes32) public tokenContentHashes;\n\n    // Mapping from token id to sha256 hash of metadata\n    mapping(uint256 => bytes32) public tokenMetadataHashes;\n\n    // Mapping from token id to metadataURI\n    mapping(uint256 => string) private _tokenMetadataURIs;\n\n    // Mapping from contentHash to bool\n    mapping(bytes32 => bool) private _contentHashes;\n\n    /*\n     *     bytes4(keccak256('name()')) == 0x06fdde03\n     *     bytes4(keccak256('symbol()')) == 0x95d89b41\n     *     bytes4(keccak256('tokenURI(uint256)')) == 0xc87b56dd\n     *     bytes4(keccak256('tokenMetadataURI(uint256)')) == 0x157c3df9\n     *\n     *     => 0x06fdde03 ^ 0x95d89b41 ^ 0xc87b56dd ^ 0x157c3df9 == 0x4e222e66\n     */\n    bytes4 private constant _INTERFACE_ID_ERC721_METADATA = 0x4e222e66;\n\n    /* *********\n     * Modifiers\n     * *********\n     */\n\n    /**\n     * @notice Require that the token has not been burned and has been minted\n     */\n    modifier onlyExistingToken(uint256 tokenId) {\n        require(_exists(tokenId), \"Media: nonexistent token\");\n        _;\n    }\n\n    /**\n     * @notice Require that the token has had a content hash set\n     */\n    modifier onlyTokenWithContentHash(uint256 tokenId) {\n        require(\n            tokenContentHashes[tokenId] != 0,\n            \"Media: token does not have hash of created content\"\n        );\n        _;\n    }\n\n    /**\n     * @notice Require that the token has had a metadata hash set\n     */\n    modifier onlyTokenWithMetadataHash(uint256 tokenId) {\n        require(\n            tokenMetadataHashes[tokenId] != 0,\n            \"Media: token does not have hash of its metadata\"\n        );\n        _;\n    }\n\n    /**\n     * @notice Ensure that the provided spender is the approved or the owner of\n     * the media for the specified tokenId\n     */\n    modifier onlyApprovedOrOwner(address spender, uint256 tokenId) {\n        require(\n            _isApprovedOrOwner(spender, tokenId),\n            \"Media: Only approved or owner\"\n        );\n        _;\n    }\n\n    /**\n     * @notice Ensure the token has been created (even if it has been burned)\n     */\n    modifier onlyTokenCreated(uint256 tokenId) {\n        require (tokenCreators[tokenId] != address(0x0), \"Media: token with that id does not exist\");\n        _;\n    }\n\n    /**\n     * @notice Ensure that the provided URI is not empty\n     */\n    modifier onlyValidURI(string memory uri) {\n        require(\n            bytes(uri).length != 0,\n            \"Media: specified uri must be non-empty\"\n        );\n        _;\n    }\n\n    /**\n     * @notice On deployment, set the market contract address and register the\n     * ERC721 metadata interface\n     */\n    constructor(address marketContractAddr) public ERC721(\"Cryptolovelocks\", \"LOCK\") {\n        marketContract = marketContractAddr;\n        crytolovelockPrice = INITIAL_PRICE;\n        developer = INITIAL_DEVELOPER_ADDRESS;\n        _registerInterface(_INTERFACE_ID_ERC721_METADATA);\n    }\n\n    /* **************\n     * View Functions\n     * **************\n     */\n\n    /**\n     * Constant BidShares for Cryptolovelocs: 5% to creator\n     * the rest to the owner\n     */\n    function initialBidShares() public pure returns (IMarket.BidShares memory) {\n        return IMarket.BidShares({\n            creator: Decimal.D256(5 * Decimal.BASE),\n            prevOwner: Decimal.D256(0),\n            owner: Decimal.D256(95 * Decimal.BASE)\n        });\n    }\n\n    function currentPrice() public view returns (uint256) {\n        return crytolovelockPrice;\n    }\n\n    function setCurrentPrice(uint256 _crytolovelockPrice) public {\n        require(msg.sender == developer, \"Media: only developer can set the price\");\n        crytolovelockPrice = _crytolovelockPrice;\n        emit CurrentPriceChanged(_crytolovelockPrice);\n    }\n\n    function currentDeveloper() public view returns (address) {\n        return developer;\n    }\n\n    function setDeveloper(address _developer) public {\n        require(msg.sender == developer, \"Media: only developer can change the developer\");\n        developer = _developer;\n        emit DeveloperChanged(_developer);\n    }\n\n    /**\n     * @notice return the URI for a particular piece of media with the specified tokenId\n     * @dev This function is an override of the base OZ implementation because we\n     * will return the tokenURI even if the media has been burned. In addition, this\n     * protocol does not support a base URI, so relevant conditionals are removed.\n     * @return the URI for a token\n     */\n    function tokenURI(uint256 tokenId)\n        public\n        view\n        override\n        onlyTokenCreated(tokenId)\n        returns (string memory)\n    {\n        string memory _tokenURI = _tokenURIs[tokenId];\n\n        return _tokenURI;\n    }\n\n    /**\n     * @notice Return the metadata URI for a piece of media given the token URI\n     * @return the metadata URI for the token\n     */\n    function tokenMetadataURI(uint256 tokenId)\n        external\n        view\n        override\n        onlyTokenCreated(tokenId)\n        returns (string memory)\n    {\n        return _tokenMetadataURIs[tokenId];\n    }\n\n    /* ****************\n     * Public Functions\n     * ****************\n     */\n\n    /**\n     * Set your love message\n     */\n    function setLoveMessage(uint256 _tokenId, string memory _msg) public onlyApprovedOrOwner(msg.sender, _tokenId) {\n        require(_canSetMessage[_tokenId], \"Cryptolovelock: You already chosen your love note\");\n        _canSetMessage[_tokenId] = false;\n        emit SetMessage(msg.sender, _tokenId, _msg);\n    }\n\n    /**\n     * @notice see IMedia\n     */\n    function mint(uint256 tokenId, MediaData memory data)\n        public\n        override\n        payable\n        nonReentrant\n    {\n        if (msg.sender != developer) {\n            require(msg.value >= crytolovelockPrice, \"Media: price not payed\");\n        }\n        _mintForCreator(tokenId, msg.sender, data, initialBidShares());\n        if (msg.sender != developer) {\n            payable(developer).transfer(msg.value);\n        }\n    }\n\n    /**\n     * @notice see IMedia\n     */\n    function auctionTransfer(uint256 tokenId, address recipient)\n        external\n        override\n    {\n        require(msg.sender == marketContract, \"Media: only market contract\");\n        previousTokenOwners[tokenId] = ownerOf(tokenId);\n        _safeTransfer(ownerOf(tokenId), recipient, tokenId, \"\");\n    }\n\n    /**\n     * @notice see IMedia\n     */\n    function setAsk(uint256 tokenId, IMarket.Ask memory ask)\n        public\n        override\n        nonReentrant\n        onlyApprovedOrOwner(msg.sender, tokenId)\n    {\n        IMarket(marketContract).setAsk(tokenId, ask);\n    }\n\n    /**\n     * @notice see IMedia\n     */\n    function removeAsk(uint256 tokenId)\n        external\n        override\n        nonReentrant\n        onlyApprovedOrOwner(msg.sender, tokenId)\n    {\n        IMarket(marketContract).removeAsk(tokenId);\n    }\n\n    /**\n     * @notice see IMedia\n     */\n    function setBid(uint256 tokenId, IMarket.Bid memory bid)\n        public\n        override\n        nonReentrant\n        onlyExistingToken(tokenId)\n    {\n        require(msg.sender == bid.bidder, \"Market: Bidder must be msg sender\");\n        IMarket(marketContract).setBid(tokenId, bid, msg.sender);\n    }\n\n    /**\n     * @notice see IMedia\n     */\n    function removeBid(uint256 tokenId)\n        external\n        override\n        nonReentrant\n        onlyTokenCreated(tokenId)\n    {\n        IMarket(marketContract).removeBid(tokenId, msg.sender);\n    }\n\n    /**\n     * @notice see IMedia\n     */\n    function acceptBid(uint256 tokenId, IMarket.Bid memory bid)\n        public\n        override\n        nonReentrant\n        onlyApprovedOrOwner(msg.sender, tokenId)\n    {\n        IMarket(marketContract).acceptBid(tokenId, bid);\n    }\n\n    /**\n     * @notice Burn a token.\n     * @dev Only callable if the media owner is also the creator.\n     */\n    function burn(uint256 tokenId)\n        public\n        override\n        nonReentrant\n        onlyExistingToken(tokenId)\n        onlyApprovedOrOwner(msg.sender, tokenId)\n    {\n        address owner = ownerOf(tokenId);\n\n        require(\n            tokenCreators[tokenId] == owner,\n            \"Media: owner is not creator of media\"\n        );\n\n        _burn(tokenId);\n    }\n\n    /**\n     * @notice Revoke the approvals for a token. The provided `approve` function is not sufficient\n     * for this protocol, as it does not allow an approved address to revoke it's own approval.\n     */\n    function revokeApproval(uint256 tokenId) external override nonReentrant {\n        require(\n            msg.sender == getApproved(tokenId),\n            \"Media: caller not approved address\"\n        );\n        _approve(address(0), tokenId);\n    }\n\n    /**\n     * @notice see IMedia\n     * @dev only callable by approved or owner\n     */\n    function updateTokenURI(uint256 tokenId, string calldata _tokenURI)\n        external\n        override\n        nonReentrant\n        onlyApprovedOrOwner(msg.sender, tokenId)\n        onlyTokenWithContentHash(tokenId)\n        onlyValidURI(_tokenURI)\n    {\n        _setTokenURI(tokenId, _tokenURI);\n        emit TokenURIUpdated(tokenId, msg.sender, _tokenURI);\n    }\n\n    /**\n     * @notice see IMedia\n     * @dev only callable by approved or owner\n     */\n    function updateTokenMetadataURI(\n        uint256 tokenId,\n        string calldata metadataURI\n    )\n        external\n        override\n        nonReentrant\n        onlyApprovedOrOwner(msg.sender, tokenId)\n        onlyTokenWithMetadataHash(tokenId)\n        onlyValidURI(metadataURI)\n    {\n        _setTokenMetadataURI(tokenId, metadataURI);\n        emit TokenMetadataURIUpdated(tokenId, msg.sender, metadataURI);\n    }\n\n    /* *****************\n     * Private Functions\n     * *****************\n     */\n\n    /**\n     * @notice Creates a new token for `creator`. Its token ID will be automatically\n     * assigned (and available on the emitted {IERC721-Transfer} event), and the token\n     * URI autogenerated based on the base URI passed at construction.\n     *\n     * See {ERC721-_safeMint}.\n     *\n     * On mint, also set the sha256 hashes of the content and its metadata for integrity\n     * checks, along with the initial URIs to point to the content and metadata. Attribute\n     * the token ID to the creator, mark the content hash as used, and set the bid shares for\n     * the media's market.\n     *\n     * Note that although the content hash must be unique for future mints to prevent duplicate media,\n     * metadata has no such requirement.\n     */\n    function _mintForCreator(\n        uint256 tokenId,\n        address creator,\n        MediaData memory data,\n        IMarket.BidShares memory bidShares\n    ) internal onlyValidURI(data.tokenURI) onlyValidURI(data.metadataURI) {\n        require(data.contentHash != 0, \"Media: content hash must be non-zero\");\n        require(\n            _contentHashes[data.contentHash] == false,\n            \"Media: a token has already been created with this content hash\"\n        );\n        require(\n            data.metadataHash != 0,\n            \"Media: metadata hash must be non-zero\"\n        );\n        require(!_exists(tokenId), \"Media: token already exists\");\n        require(tokenId >= 0 && tokenId < TOTAL_SUPPLY, \"Media: collection has a limited supply\");\n        if (creator != developer) {\n            require(tokenId >= RESERVED_FOR_FUTURE_SALES, \"Media: this token is left for future sales\");\n        }\n        else {\n            require(tokenId < RESERVED_FOR_FUTURE_SALES, \"Media: developer can mint only token left for future sales\");\n        }\n\n        _safeMint(creator, tokenId);\n\n        _setTokenContentHash(tokenId, data.contentHash);\n        _setTokenMetadataHash(tokenId, data.metadataHash);\n        _setTokenMetadataURI(tokenId, data.metadataURI);\n        _setTokenURI(tokenId, data.tokenURI);\n        _canSetMessage[tokenId] = true;\n        _creatorTokens[creator].add(tokenId);\n        _contentHashes[data.contentHash] = true;\n\n        tokenCreators[tokenId] = creator;\n        previousTokenOwners[tokenId] = creator;\n        IMarket(marketContract).setBidShares(tokenId, bidShares);\n    }\n\n    function _setTokenContentHash(uint256 tokenId, bytes32 contentHash)\n        internal\n        virtual\n        onlyExistingToken(tokenId)\n    {\n        tokenContentHashes[tokenId] = contentHash;\n    }\n\n    function _setTokenMetadataHash(uint256 tokenId, bytes32 metadataHash)\n        internal\n        virtual\n        onlyExistingToken(tokenId)\n    {\n        tokenMetadataHashes[tokenId] = metadataHash;\n    }\n\n    function _setTokenMetadataURI(uint256 tokenId, string memory metadataURI)\n        internal\n        virtual\n        onlyExistingToken(tokenId)\n    {\n        _tokenMetadataURIs[tokenId] = metadataURI;\n    }\n\n    /**\n     * @notice Destroys `tokenId`.\n     * @dev We modify the OZ _burn implementation to\n     * maintain metadata and to remove the\n     * previous token owner from the piece\n     */\n    function _burn(uint256 tokenId) internal override {\n        string memory _tokenURI = _tokenURIs[tokenId];\n\n        super._burn(tokenId);\n\n        if (bytes(_tokenURI).length != 0) {\n            _tokenURIs[tokenId] = _tokenURI;\n        }\n\n        delete previousTokenOwners[tokenId];\n    }\n\n    /**\n     * @notice transfer a token and remove the ask for it.\n     */\n    function _transfer(\n        address from,\n        address to,\n        uint256 tokenId\n    ) internal override {\n        IMarket(marketContract).removeAsk(tokenId);\n        super._transfer(from, to, tokenId);\n        _canSetMessage[tokenId] = true;\n    }\n\n}\n",
  "sourcePath": "/home/michele/Projects/lovelock/cryptolovelocks-zora-core/contracts/Media.sol",
  "compiler": {
    "name": "solc",
    "version": "0.6.8+commit.0bbfe453.Emscripten.clang"
  },
  "schemaVersion": "3.4.1",
  "updatedAt": "2021-05-25T22:32:45.646Z",
  "devdoc": {
    "methods": {
      "approve(address,uint256)": {
        "details": "See {IERC721-approve}."
      },
      "balanceOf(address)": {
        "details": "See {IERC721-balanceOf}."
      },
      "baseURI()": {
        "details": "Returns the base URI set via {_setBaseURI}. This will be automatically added as a prefix in {tokenURI} to each token's URI, or to the token ID if no specific URI is set for that token ID."
      },
      "burn(uint256)": {
        "details": "Only callable if the media owner is also the creator."
      },
      "getApproved(uint256)": {
        "details": "See {IERC721-getApproved}."
      },
      "isApprovedForAll(address,address)": {
        "details": "See {IERC721-isApprovedForAll}."
      },
      "name()": {
        "details": "See {IERC721Metadata-name}."
      },
      "ownerOf(uint256)": {
        "details": "See {IERC721-ownerOf}."
      },
      "safeTransferFrom(address,address,uint256)": {
        "details": "See {IERC721-safeTransferFrom}."
      },
      "safeTransferFrom(address,address,uint256,bytes)": {
        "details": "See {IERC721-safeTransferFrom}."
      },
      "setApprovalForAll(address,bool)": {
        "details": "See {IERC721-setApprovalForAll}."
      },
      "supportsInterface(bytes4)": {
        "details": "See {IERC165-supportsInterface}.     * Time complexity O(1), guaranteed to always use less than 30 000 gas."
      },
      "symbol()": {
        "details": "See {IERC721Metadata-symbol}."
      },
      "tokenByIndex(uint256)": {
        "details": "See {IERC721Enumerable-tokenByIndex}."
      },
      "tokenMetadataURI(uint256)": {
        "returns": {
          "_0": "the metadata URI for the token"
        }
      },
      "tokenOfOwnerByIndex(address,uint256)": {
        "details": "See {IERC721Enumerable-tokenOfOwnerByIndex}."
      },
      "tokenURI(uint256)": {
        "details": "This function is an override of the base OZ implementation because we will return the tokenURI even if the media has been burned. In addition, this protocol does not support a base URI, so relevant conditionals are removed.",
        "returns": {
          "_0": "the URI for a token"
        }
      },
      "totalSupply()": {
        "details": "See {IERC721Enumerable-totalSupply}."
      },
      "transferFrom(address,address,uint256)": {
        "details": "See {IERC721-transferFrom}."
      },
      "updateTokenMetadataURI(uint256,string)": {
        "details": "only callable by approved or owner"
      },
      "updateTokenURI(uint256,string)": {
        "details": "only callable by approved or owner"
      }
    },
    "title": "A media value system, with perpetual equity to creators"
  },
  "userdoc": {
    "methods": {
      "acceptBid(uint256,(uint256,address,address,address,(uint256)))": {
        "notice": "see IMedia"
      },
      "auctionTransfer(uint256,address)": {
        "notice": "see IMedia"
      },
      "burn(uint256)": {
        "notice": "Burn a token."
      },
      "constructor": "On deployment, set the market contract address and register the ERC721 metadata interface",
      "initialBidShares()": {
        "notice": "Constant BidShares for Cryptolovelocs: 5% to creator the rest to the owner"
      },
      "mint(uint256,(string,string,bytes32,bytes32))": {
        "notice": "see IMedia"
      },
      "removeAsk(uint256)": {
        "notice": "see IMedia"
      },
      "removeBid(uint256)": {
        "notice": "see IMedia"
      },
      "revokeApproval(uint256)": {
        "notice": "Revoke the approvals for a token. The provided `approve` function is not sufficient for this protocol, as it does not allow an approved address to revoke it's own approval."
      },
      "setAsk(uint256,(uint256,address))": {
        "notice": "see IMedia"
      },
      "setBid(uint256,(uint256,address,address,address,(uint256)))": {
        "notice": "see IMedia"
      },
      "setLoveMessage(uint256,string)": {
        "notice": "Set your love message"
      },
      "tokenMetadataURI(uint256)": {
        "notice": "Return the metadata URI for a piece of media given the token URI"
      },
      "tokenURI(uint256)": {
        "notice": "return the URI for a particular piece of media with the specified tokenId"
      },
      "updateTokenMetadataURI(uint256,string)": {
        "notice": "see IMedia"
      },
      "updateTokenURI(uint256,string)": {
        "notice": "see IMedia"
      }
    },
    "notice": "This contract provides an interface to mint media with a market owned by the creator."
  }
}